:1011D0000A20424720524F4D4D4150203D20256569
:1011E000000A2056444420766F6C74616765203D88
:0411F0002025650051
:0811F400020E000002140000CD
:100B5300A2AF9209C2AF75C7AA75C755439F01A239
:100B63000992AF75AF0475A60DE4F5A7A2AF92097C
:100B7300C2AF75C7AA75C75543A401A20992AF8531
:100B8300AE27E52754F0F5286480707753270F7557
:100B9300A60CF5A7A2AF9209C2AF75C7AA75C75530
:100BA30043A401A20992AF85AE26E52675F010A4F1
:100BB3007C002527FDEC35F0FCE41202A68F2C8E79
:100BC3002B8D2A8C29E4FFFE7D407C40AB2CAA2B85
:100BD300A92AA8291200FBE4FBFA798078401202C3
:100BE300048F308E2F8D2E8C2DE4FFFE7D047CC26E
:100BF300AB30AA2FA92EA82D12000A8F138E128DA7
:100C0300118C10E528705D53270F75A60CF5A7A26C
:100C1300AF9209C2AF75C7AA75C75543A401A2090C
:100C230092AF85AE26E52675F010A47C002527FD3E
:100C3300EC35F0FCE41202A68F2C8E2B8D2A8C2926
:100C4300E4FFFE7D407C40AB2CAA2BA92AA82912E5
:100C530000FBE4FBFA798078401202048F138E12B2
:100C63008D118C10E5286490707875A60EF5A7A2F7
:100C7300AF9209C2AF75C7AA75C75543A401A209AC
:100C830092AF85AE2675A60FF5A7A2AF9209C2AFA4
:100C930075C7AA75C75543A401A20992AF85AE27AC
:100CA30053270FE52675F010A47C002527FDEC35AE
:100CB300F0FCE41202A68F2C8E2B8D2A8C29E4FFE4
:100CC300FE7D407C40AB2CAA2BA92AA8291200FB4D
:100CD300E4FBFA798078401202048F138E128D118F
:100CE3008C10A2AF9209C2AF75C7AA75C755539F9F
:050CF300FEA20992AF12
:010CF80022D9
:100CF9007F007EC27D017C00121170120B537BFFB5
:100D09007A1179D085132C85122B85112A85102902
:100D190012074643E80853E8F843E101759502E4F0
:100D2900FFFEC2EFD2EE30EFFD74002FF582E434FE
:100D390000F583E5C3F074052FF582E43400F583EB
:100D4900E5C2F00FBF00010EEF64054E70D4E4F563
:100D59009553E1FEFE7F0274002FF582E43400F51D
:100D690083E0250FF50FE4350EF50E74052FF58296
:100D7900E43400F583E02515F515E43514F5140F71
:100D8900BF00010EEF64054E70CDAE0EAF0F7C00B3
:100D99007D031205238F0CAE14AF157C007D031261
:100DA90005238F0DE50C75F010A47C00250DFDECD5
:100DB90035F0FCE41202A68F258E248D238C22ABFC
:100DC90025AA24A923A822E4FFFE7D807C451202DE
:100DD90004AB13AA12A911A8101200FB8F0B8E0ADB
:100DE9008D098C087BFF7A1179E18F2C8E2B8D2A46
:100DF9008C291207467FF47E017D007C001210DAEF
:0C0E0900E4F50EF50FF514F515020D1CB4
:010E150022BA
:1011700053B1BF53B2BF53B17F53B27F7598504341
:101180008920438780438E1053C4DFAB07AA06A98A
:1011900005A8047F407E427D0F7C00120595EF0478
:0911A000F404F58DD28ED29922DF
:100EC2008F198E188D178C1653B1BF53B2BF53B101
:100ED2007F53B27F75985043878053C4F843C42030
:100EE200AB19AA18A917A8167F407E427D0F7C0075
:100EF200120595C374FF9FFF74FF9EFEE49DFDE4FF
:100F02009CFC78081206468FC6AB19AA18A917A826
:100F1200167F407E427D0F7C00120595C374FF9FB1
:100F2200FF74FF9EFEE49DFDE49CFCEFE48FC5434D
:050F3200C408D2992261
:0711FD003098FDAF99C29884
:0112040022C7
:08120500C2998F993099FD2276
:100F37008F1D8E1C8D1B8C1A53B1FB53B2FB53B301
:100F4700BF53B4BF75F85075C40853C4DFAB1DAAAF
:100F57001CA91BA81A7F407E427D0F7C00120595B5
:100F6700C374FF9FFF74FF9EFEE49DFDE49CFC7825
:100F7700081206468FC6AB1DAA1CA91BA81A7F40DC
:100F87007E427D0F7C00120595C374FF9FFF74FF9F
:100F97009EFEE49DFDE49CFCEFE48FC543C408225C
:07120D0030F8FDAF9AC2F8B2
:0112140022B7
:08121500C2F98F9A30F9FD22A5
:10108F008F458E448D438C42538EF7438901D28C0A
:10109F00E4FFFEFDFCAB45AA44A943A842C31206D8
:1010AF00356025758A7E758CFF308DFDC28DE545C7
:1010BF0024FFF545E54434FFF544E54334FFF5439C
:0B10CF00E54234FFF54280C8C28C22CD
:1010DA008F298E288D278C26538EF7438901D28C2F
:1010EA00E4FFFEFDFCAB29AA28A927A826C31206FD
:1010FA00356025758ACA758CFA308DFDC28DE52951
:10110A0024FFF529E52834FFF528E52734FFF527DC
:0B111A00E52634FFF52680C8C28C22B9
:101125008F498E488D478C46538EEF438910D28E5A
:10113500E4FFFEFDFCAB49AA48A947A846C3120631
:10114500356025758BEA758DCB308FFDC28FE549EE
:1011550024FFF549E54834FFF548E54734FFF547F1
:0B116500E54634FFF54680C8C28E222C
:100FA7008F4D8E4C8D4B8C4A53C9BF53C9DF43C9F4
:100FB70010D2CAE4FFFEFDFCAB4DAA4CA94BA84AD0
:100FC700C3120635602575CC3075CDF830CFFDC21C
:100FD700CFE54D24FFF54DE54C34FFF54CE54B349B
:0E0FE700FFF54BE54A34FFF54A80C8C2CA2226
:100FF5008F518E508D4F8C4E75C40743C408E4FF46
:10100500FEFDFCAB51AA50A94FA84EC31206356090
:101015002875C52C75C6CFE5C430E4FB53C4EFE590
:101025005124FFF551E55034FFF550E54F34FFF5F8
:0D1035004FE54E34FFF54E80C553C4F72241
:101042008F558E548D538C5275C40743C408E4FFE8
:10105200FEFDFCAB55AA54A953A852C31206356033
:101062002875C5D875C6FFE5C430E4FB53C4EFE567
:101072005524FFF555E55434FFF554E55334FFF597
:0D10820053E55234FFF55280C553C4F722E8
:03000000020E16D7
:100E160075C7AA75C75575FD5A75C7AA75C755759D
:100E2600FDA5787FE4F6D8FD9000007FFF7E03E401
:0C0E3600F0A3DFFCDEFA758155020E7D92
:10000300020314E86480F8E933E83360110460F014
:10001300ED33EC337009E8FCE9FDEAFEEBFF220463
:1000230060DED3EB9FEA9EE99DE8C2E78CF0C2F75E
:1000330095F0400CE8CCF8E9CDF9EACEFAEBCFFB2A
:100043001202DF85D0F05804700320D5B3E80470A2
:10005300075002B2D502031E92D5EC0460F7E4CC3C
:10006300C0E0C398F8603B94186008400DD0E0FBF3
:100073000202F6E4FBFAC9FC8028E830E406E4C98E
:10008300FBE4CAFCE830E305E4C9CACBFCE8540747
:100093006010F8C3E913F9EA13FAEB13FBEC13FC52
:1000A300D8F130F52FC3E49CFCEF9BFFEE9AFEEDF5
:1000B30099FDD0E0FBEF4E4D4C701222DB0302039F
:1000C3001BEC2CFCEF33FFEE33FEED33FDED30E79D
:1000D300EB0202F6EF2BFFEE3AFEED39FDD0E0FB2B
:1000E30050130BBB000302031EED13FDEE13FEEFD3
:0800F30013FFEC13FC0202F6FE
:1000FB00EC4D6011E8497017ED33EC3304600DE4FF
:10010B00FCFFFEFD22E933E8330470F802031412FE
:10011B0002DF58046009E4CC248150062850090200
:10012B00031E28400302031BC0E0EB4A7044B98056
:10013B0006D0E0FB02030AEF4E701CBD8008EBFFFC
:10014B00EAFEE9FD80EBE98DF0A4FEE5F00201E4A7
:10015B00E9CDF9EAFEEBFFEF89F0A4FCE5F0CE89DF
:10016B00F0A42EFFE435F0CD89F0A42DFEE435F09C
:10017B008067EF4E7005BD80D780C3EF8BF0A4ACCA
:10018B00F0EE8BF0A42CFCE435F0F8EF8AF0A42C05
:10019B00E5F038FCE433CB8DF0A42CFCE5F03BF818
:1001AB00EE8AF0A42CFCE5F038F8E433CF89F0A408
:1001BB002CFCE5F038CF3400CE89F0A42FFFE5F00E
:1001CB003EFEE433C98DF0A42EFEE5F039CD8AF066
:1001DB00A42FFFE5F03EFEE43DFD33D0E0FB5007DE
:1001EB000BBB000F02031EEC2CFCEF33FFEE33FEB8
:0601FB00ED33FD0202F6E7
:1002010002031EEC5D046005E85904700302031447
:100211001202DF580460F6EC4860F2EC7004FDFE57
:10022100FF22C860DB2481C85009C39860025006D0
:1002310002031B9850CAF582E9294B4A7005AB822B
:1002410002030A75F0007C1A7880C3EF9BEE9AEDE9
:1002510099400DC3EF9BFFEE9AFEED99FDE842F048
:10026100DC23ACF0D0E0FFD0E0FED0E0FDAB82209B
:10027100E7101BEB60BAEC2CFCEF33FFEE33FEED25
:1002810033FD0202F6E803F830E705C0F075F0002F
:10029100EF2FFFEE33FEED33FD40B830E7C280AA09
:1002A10075F020800E75F010800575F0087D007ED8
:1002B100007F003392D530D503120627EC3340106E
:1002C100EF33FFEE33FEED33FDEC33FCD5F0ED22E1
:0E02D100E5F0247EA2D513CC92E7CDCEFF221D
:1006E400E53D2429F8E6053D2278263007027829DD
:1006F400E475F0011206590204CB2000EB7F2ED2E0
:10070400008018EF540F2490D43440D4FF30040BED
:10071400EF24BFB41A0050032461FFE53E600215C4
:100724003E0541E5417002054030070D7826E47529
:10073400F001120659EF0205110211A97403D20740
:100744008003E4C207F53D8B268A278928E4F53E19
:10075400F540F541E53E60077F2012071F80F575DF
:100764003FFFC201C200C202C203C205C206C208E0
:100774001206EDFF700D3007057F00120730AF4100
:10078400AE4022B4255FC2D5C2041206EDFF24D0C8
:10079400B40A00501A75F00A783E30D50508B6FF41
:1007A4000106C6A426F620D5047002D20380D924FB
:1007B400CFB41A00EF5004C2E5D204020A1DD201DC
:1007C40080C6D20080C0D20280BCD2D580BAD20505
:1007D40080B47F2012071F2002077401B53E004039
:1007E400F11206E4FF12071F020758D208D206804E
:1007F400951206E4FB1206E4FA1206E4F94A4B7079
:100804000679147A0B7BFF20022EE53E602A7E00D7
:100814008E827583001204E460060EEE653F70F06C
:10082400C2D5EBC0E0EAC0E0E9C0E0EE120A7DD038
:10083400E0F9D0E0FAD0E0FB1204CBFF60AAEBC0F1
:10084400E0EAC0E0E9C0E012071FD0E02401F9D0DB
:10085400E03400FAD0E0FBE53F0460DCD53FD9800A
:1008640087D20280A2120A6060F7E53F7001041289
:100874000329A93F600DE53F600914F53F120B07FA
:10088400EF60F3EA30E702F404C3995077EAF42501
:100894003F0430E701E404F53F800D120A6060C1B3
:1008A400EA053F253F120329EA783CF630E701E4E4
:1008B400253F04D53F0420050114120A7DE4C0E05D
:1008C400120B07783CE6601320E70714F6120707BB
:1008D400802204F6D0E014C0E07F00120707E53F51
:1008E40060071206FE153F800B3005031206FED08A
:1008F400E0020758D0E00480C5120A6060A0E53F1A
:1009040004120329783CEAF6E53F2005026001045D
:050914002404120A7D1D
:1009190074FF04C0E0120B07120707E53F20050228
:1009290060031206FED0E0B53FE87F451207117853
:100939003CE67F2B30E7047F2DF404C0E012071F4B
:10094900D0E075F00A84C0F0120708D0E012070859
:10095900020758791080027908C206C2088008D2B5
:10096900D5790A8004790AC2D5E53F047002F53FBA
:10097900E4FAFDFEFF1206E4FC7B082001131206CF
:10098900E4FD7B1030000A1206E4FE1206E4FF7B48
:1009990020EC3382D592D55013C3E43000069FFF73
:1009A900E49EFEE42001039DFDE49CFCE4CBF8C237
:1009B90001EC700CCFCECDCCE824F8F870F3801799
:1009C900C3EF33FFEE33FEED33FDEC33FCEB33FBCA
:1009D900994002FB0FD8E9EB300105F8D0E0C44893
:1009E900B201C0E00AEC4D4E4F78207B0070C2EA9C
:1009F900B53F0040BCC0E0120A7FD0F0D0E0200132
:100A090004C4C0E0C4B201C0F0120708D0F0D5F0A8
:100A1900EB02075812066907F553095C5807C64CDB
:100A290007C24209604F09684409684907DB43095D
:100A39006E55089F4608FD450869470B345007CA9B
:100A49002D07CE2E07F12B07D22307EF200B1D2AE6
:100A5900078A48000007E9E53FB4FF03753F06121E
:100A690006E4FC1206E4FD1206E4FE1206E4FF7831
:100A790035020358790AA2D5200314300509B910A3
:100A8900020404B9080104A2D52006025001042079
:100A990002689202B53E005034C0E07F203003194D
:100AA9007F30A20272067205500F120AD6C202C224
:100AB90006C205C2087F30800F300503E9C0E01285
:100AC900071F300503D0E0F9D0E0B53ECC3005175B
:100AD9007F30B9100C12071F7F583004077F7880C8
:100AE90003B9080312071F3002057F2D02071F7F74
:100AF900202008F87F2B2006F322920280CF7F0066
:100B0900B4070050052435F8E6FF22286E756C6C91
:100B19002900D2011206E43001F8C201783E30D52D
:100B29000108F602078A2D504349581206E42403A6
:100B3900B405004001E4900B2F93120710743A1288
:0A0B49000710D203753E0402095C98
:1002DF00E9D2E7C933E833F892D5EDD2E7CD33EC65
:0702EF0033FC5002B2D522DE
:1002F600EC30E7100FBF000C0EBE00080DBD000469
:100306000BEB6014A2D5EB13FCED92E7FD2274FF14
:10031600FCFDFEFF22E480F8A2D574FF13FC7D806D
:03032600E480EF81
:10032900F920E72824F950037907E4F42402FB189B
:10033900DBFDE624FB5014E9600DE4F618E604F64B
:0F034900B40A08E4F6D9F57401F60A22C2D522E7
:10035800ED33EC3392D5FA602AB4FF33EDC2E77B74
:10036800FF60067A03797DE4227A03798620D50432
:100378007A037981224E614E002B494E46002D4961
:100388004E4600E47A08F608DAFC7B00740722E897
:10039800C0E0ECC0E0EDC0E0EEC0E0EFC0E0EA7520
:1003A800F010A4CAABF075F04DA42BFBE435F0FCBB
:1003B800EA2410FAEB34C5FBEC34D9FCEDC2E7FFB4
:1003C80075F056A4F42411C5F0F434C58FF0A42AAE
:1003D800E5F03BE43CF620E71412048BD0E0FFD0B4
:1003E800E0FED0E0FDD0E0FC1202048014F4041218
:1003F800048BD0E0FFD0E0FED0E0FDD0E0FC12009E
:10040800FBD0E0F8E6FAEDD2E7CD33EC332482FBFB
:10041800E4C3CF33CFCE33CECD33CD33DBF37B073D
:1004280075F00A846004F6081B0AE5F0F6088FF0F8
:10043800740AA4FFACF08EF0740AA42CFEACF05041
:10044800010C8DF0740AA42CFDE435F0F608DBDE0F
:0304580074072204
:10045B003F8000004120000042C80000447A0000A9
:10046B00461C400047C35000497424004B1896802B
:10047B004CBEBC205A0E1BCA6753C21C749DC5AE22
:10048B00FB60065407601C23231204B9EB5438603D
:10049B00091204A51204B41200FBECF8EDF9EEFA04
:1004AB00EFCB22EB1204B480F1543803241C9004DC
:1004BB005BFE93FC0EEE93FD0EEE930ECE93FF229E
:100E4200020CF9E493A3F8E493A34003F68001F2C1
:100E520008DFF48029E493A3F85407240CC8C333B1
:100E6200C4540F4420C8834004F456800146F6DF80
:100E7200E4800B01020408102040809011F4E47E0B
:100E8200019360BCA3FF543F30E509541FFEE49375
:100E9200A360010ECF54C025E060A840B8E493A33C
:100EA200FAE493A3F8E493A3C8C582C8CAC583CA67
:100EB200F0A3C8C582C8CAC583CADFE9DEE780BE1F
:0111FC0000F2
:1004CB00BB010689828A83E0225002E722BBFE022F
:0904DB00E32289828A83E4932262
:1004E400BB010CE58229F582E5833AF583E02250CD
:1004F40006E92582F8E622BBFE06E92582F8E22217
:0D050400E58229F582E5833AF583E4932230
:10051100BB010689828A83F0225002F722BBFE01C9
:02052100F322C3
:10052300C2D5EC30E709B2D5E4C39DFDE49CFCEEF3
:1005330030E715B2D5E4C39FFFE49EFE12068FC3D6
:10054300E49DFDE49CFC800312068F30D507C3E4D1
:060553009FFFE49EFE2262
:1005590075F008758200EF2FFFEE33FECD33CDCC59
:1005690033CCC58233C5829BED9AEC99E5829840DC
:100579000CF582EE9BFEED9AFDEC99FC0FD5F0D6B9
:10058900E4CEFBE4CDFAE4CCF9A88222B800C1B9E3
:100599000059BA002DEC8BF084CFCECDFCE5F0CB21
:1005A900F97818EF2FFFEE33FEED33FDEC33FCEB5A
:1005B90033FB10D703994004EB99FB0FD8E5E4F915
:1005C900FA227818EF2FFFEE33FEED33FDEC33FC02
:1005D900C933C910D7059BE99A4007EC9BFCE99AF6
:1005E900F90FD8E0E4C9FAE4CCFB2275F010EF2F3B
:1005F900FFEE33FEED33FDCC33CCC833C810D7073B
:100609009BEC9AE899400AED9BFDEC9AFCE899F875
:0E0619000FD5F0DAE4CDFBE4CCFAE4C8F92208
:0E062700C3E49FFFE49EFEE49DFDE49CFC22E4
:10063500EB9FF5F0EA9E42F0E99D42F0E89C45F01B
:010645002292
:10064600E8600FECC313FCED13FDEE13FEEF13FF92
:03065600D8F122B6
:10065900FAE6FB0808E6F925F0F618E6CA3AF622A2
:10066900D083D082F8E4937012740193700DA3A320
:1006790093F8740193F5828883E473740293686034
:06068900EFA3A3A380DF34
:1011A900EFB40A07740D1211B4740A309811A89992
:1011B900B8130CC2983098FDA899C298B811F630A6
:0711C90099FDC299F599227E
:10068F00BC000BBE0029EF8DF084FFADF022E4CC4F
:10069F00F875F008EF2FFFEE33FEEC33FCEE9DEC18
:1006AF00984005FCEE9DFE0FD5F0E9E4CEFD22ED5E
:1006BF00F8F5F0EE8420D21CFEADF075F008EF2FA8
:1006CF00FFED33FD4007985006D5F0F222C398FD99
:0506DF000FD5F0EA2236
:00000001FF
