:1002A200AD07AF06A2AF9200BF010BC2AF75C7AADE
:1002B20075C75543F91075C7AA75C7558DFAA200BF
:0202C20092AFF9
:0102C4002217
:10000300E4F5B1F5B2F5B3F5B4F5ACF5AD75950816
:1000130043DE0143DE0243DE10A2AF9200C2AF759E
:10002300C7AA75C75543910143C62075C7AA75C7AB
:10003300555391FEA20092AF43DF4053DF7F75D14A
:100043000A75D9B375D20775DA6BA2AF9200C2AF46
:1000530075C7AA75C755439101A20092AF75C40134
:1000630075CCCFA2AF9200C2AF75C7AA75C755535F
:1000730091FEA20092AFA2AF9200C2AF75C7AA755C
:10008300C75543F901A20092AFA2AF9200C2AF7568
:10009300C7AA75C75543F904A20092AF7FFF7E013B
:0A00A3001202A2D2DED2DF80FE229C
:100195008F0B8E0A8D098C08538EF7438901D28CFB
:1001A500E4FFFEFDFCAB0BAA0AA909A808C31202CD
:1001B500C56025758A7E758CFF308DFDC28DE50B7A
:1001C50024FFF50BE50A34FFF50AE50934FFF509C7
:0B01D500E50834FFF50880C8C28C224A
:1001E0008F0F8E0E8D0D8C0C538EF7438901D28CA0
:1001F000E4FFFEFDFCAB0FAA0EA90DA80CC3120272
:10020000C56025758ACA758CFA308DFDC28DE50FE3
:1002100024FFF50FE50E34FFF50EE50D34FFF50D67
:0B022000E50C34FFF50C80C8C28C22F6
:10022B008F138E128D118C10538EEF438910D28E3B
:10023B00E4FFFEFDFCAB13AA12A911A810C3120216
:10024B00C56025758BEA758DCB308FFDC28FE5139D
:10025B0024FFF513E51234FFF512E51134FFF51108
:0B026B00E51034FFF51080C8C28E22A1
:1000AD008F178E168D158C1453C9BF53C9DF43C9D5
:1000BD0010D2CAE4FFFEFDFCAB17AA16A915A814B1
:1000CD00C31202C5602575CC3075CDF830CFFDC299
:1000DD00CFE51724FFF517E51634FFF516E51534B2
:0E00ED00FFF515E51434FFF51480C8C2CA22D1
:1000FB008F1B8E1A8D198C1875C40743C408E4FF27
:10010B00FEFDFCAB1BAA1AA919A818C31202C560E5
:10011B002875C52C75C6CFE5C430E4FB53C4EFE599
:10012B001B24FFF51BE51A34FFF51AE51934FFF50F
:0D013B0019E51834FFF51880C553C4F722EC
:100148008F1F8E1E8D1D8C1C75C40743C408E4FFC9
:10015800FEFDFCAB1FAA1EA91DA81CC31202C56088
:100168002875C5D875C6FFE5C430E4FB53C4EFE570
:100178001F24FFF51FE51E34FFF51EE51D34FFF5AE
:0D0188001DE51C34FFF51C80C553C4F72293
:0300000002027683
:1002760075C7AA75C75575FD5A75C7AA75C7557549
:10028600FDA5787FE4F6D8FD9000007FFF7E03E4AD
:0C029600F0A3DFFCDEFA758120020003FB
:1002C500EB9FF5F0EA9E42F0E99D42F0E89C45F08F
:0102D5002206
:00000001FF
