:070CB700024A001001490090
:10096600E4F5B1F5B2F5B3F5B4F5ACF5AD43B302C4
:1009760053B4FD53B1F743B20853B1EF43B210532A
:10098600B1DF43B22053B1BF43B24053B1FD43B2CE
:100996000253B1DF43B220C283C284C285C286C27B
:1009A60081D295C2847FF47E01FDFC802EC3E54B87
:1009B60094B8E54A940B5028D284AF4BAE4A120540
:1009C6003A12034C8F49C284740A254BF54BE43521
:1009D6004AF54A7FF47E017D007C00120BE880CD4B
:0209E60080FE91
:04053A00AB07AA065B
:10053E007524007523B0752256752145E4F528F50E
:10054E0027752620752541F52CF52B752A20752942
:10055E0041AD07AC061203138F308E2F8D2E8C2DCE
:10056E00E4F534F533F532F531F538F537F536F582
:10057E0035FFFE7D807C41AB30AA2FA92EA82D120F
:10058E0002A1500DE4F530F52F752E80752D4180AA
:10059E00237F007E807D3B7C45AB30AA2FA92EA801
:1005AE002D1202A1600E400C753000752F80752E35
:1005BE003B752D45AB30AA2FA92EA82D7F007E406E
:1005CE007D4E7C45120006C004C005C006C007AFB4
:1005DE0030AE2FAD2EAC2DAB2CAA2BA92AA82912EA
:1005EE0000FBD003D002D001D0001202048F388E4F
:1005FE00378D368C35AB28AA27A926A825120204DA
:10060E001206D9AB24AA23A922A8211202047B0F19
:10061E007ACF795B783B12000AA804A905AA06AB2B
:10062E0007E4FFFE7D807C3F1202047B337A9379D0
:10063E008878C312000A8F348E338D328C31E4FFEA
:10064E00FE7DC67C42AB34AA33A932A8311202A178
:10065E00600B4009E4FFFE7DC67C428008AF34AEDD
:10066E0033AD32AC318F348E338D328C31E4FFFEAC
:10067E00FDFCAB34AA33A932A8311202A15007E413
:10068E00FFFEFDFC8008AF34AE33AD32AC318F349B
:06069E008E338D328C3119
:0106A4002233
:0807DA008F0B8E0A8D098C08BB
:1007E200E4F50FF50EF50DF50CFFFE7D0C7C42AB2A
:1007F2000BAA0AA909A8081202A15011E4FFFE7D62
:10080200807C3FAB0BAA0AA909A8088047E4FFFE37
:100812007D827C42AB0BAA0AA909A8081202A15048
:100822001A7F8F7EC27D957C3FAB0BAA0AA909A8CD
:10083200081200FBE4FBFA798080177FCD7ECC7D25
:100842008C7C3FAB0BAA0AA909A8081200FBE4FBA7
:10085200FAF9783F12000A8F0F8E0E8D0D8C0CE480
:10086200FFFE7DC67C42AB0FAA0EA90DA80C120298
:10087200A1600B4009E4FFFE7DC67C428008AF0FF9
:10088200AE0EAD0DAC0C8F0F8E0E8D0D8C0CE4FFE9
:10089200FEFDFCAB0FAA0EA90DA80C1202A1500777
:1008A200E4FFFEFDFC8008AF0FAE0EAD0DAC0C8F69
:0708B2000F8E0E8D0D8C0C62
:0108B900221C
:100B9D008F138E128D118C10538EF7438901D28CC9
:100BAD00E4FFFEFDFCAB13AA12A911A810C3120499
:100BBD00F66025758A7E758CFF308DFDC28DE5132F
:100BCD0024FFF513E51234FFF512E51134FFF5118D
:0B0BDD00E51034FFF51080C8C28C2228
:100BE8008F248E238D228C21538EF7438901D28C3A
:100BF800E4FFFEFDFCAB24AA23A922A821C312040A
:100C0800F66025758ACA758CFA308DFDC28DE5248B
:100C180024FFF524E52334FFF523E52234FFF522EC
:0B0C2800E52134FFF52180C8C28C22BA
:100C33008F178E168D158C14538EEF438910D28E19
:100C4300E4FFFEFDFCAB17AA16A915A814C31204F2
:100C5300F66025758BEA758DCB308FFDC28FE51756
:100C630024FFF517E51634FFF516E51534FFF515E2
:0B0C7300E51434FFF51480C8C28E2287
:100AB5008F1B8E1A8D198C1853C9BF53C9DF43C9B3
:100AC50010D2CAE4FFFEFDFCAB1BAA1AA919A8188F
:100AD500C31204F6602575CC3075CDF830CFFDC254
:100AE500CFE51B24FFF51BE51A34FFF51AE519348C
:0E0AF500FFF519E51834FFF51880C8C2CA22B3
:100B03008F1F8E1E8D1D8C1C75C40743C408E4FF04
:100B1300FEFDFCAB1FAA1EA91DA81CC31204F66090
:100B23002875C52C75C6CFE5C430E4FB53C4EFE587
:100B33001F24FFF51FE51E34FFF51EE51D34FFF5E9
:0D0B43001DE51C34FFF51C80C553C4F722CE
:100B50008F408E3F8D3E8C3D75C40743C408E4FF33
:100B6000FEFDFCAB40AA3FA93EA83DC31204F660BF
:100B70002875C5D875C6FFE5C430E4FB53C4EFE55E
:100B80004024FFF540E53F34FFF53FE53E34FFF5F7
:0D0B90003EE53D34FFF53D80C553C4F7221E
:100C7E0053B1BF53B2BF53B17F53B27F7598504338
:100C8E008920438780438E1053C4DFAB07AA06A981
:100C9E0005A8047F407E427D0F7C00120456EF04AF
:090CAE00F404F58DD28ED29922D6
:1009E8008F448E438D428C4153B1BF53B2BF53B134
:1009F8007F53B27F75985043878053C4F843C4200F
:100A0800AB44AA43A942A8417F407E427D0F7C00A7
:100A1800120456C374FF9FFF74FF9EFEE49DFDE41D
:100A28009CFC78081205078FC6AB44AA43A942A8C4
:100A3800417F407E427D0F7C00120456C374FF9FA5
:090A4800FF8FC543C408D29922B6
:070CBF003098FDAF99C298C7
:010CC600220B
:080CC700C2998F993099FD22BA
:100A51008F488E478D468C4553B1FB53B2FB53B340
:100A6100BF53B4BF75F85075C40853C4DFAB48AA6F
:100A710047A946A8457F407E427D0F7C001204565F
:100A8100C374FF9FFF74FF9EFEE49DFDE49CFC7810
:100A9100081205078FC6AB48AA47A946A8457F405B
:100AA1007E427D0F7C00120456C374FF9FFF8FC5E9
:040AB10043C4082210
:070CCF0030F8FDAF9AC2F8F6
:010CD60022FB
:080CD700C2F98F9A30F9FD22E9
:030000000208BA39
:1008BA0075C7AA75C75575FD5A75C7AA75C75575FF
:1008CA00FDA5787FE4F6D8FD9000007FFF7E03E463
:0C08DA00F0A3DFFCDEFA75814B0209215F
:100003000203B8E86480F8E933E83360110460F070
:10001300ED33EC337009E8FCE9FDEAFEEBFF220463
:1000230060DED3EB9FEA9EE99DE8C2E78CF0C2F75E
:1000330095F0400CE8CCF8E9CDF9EACEFAEBCFFB2A
:1000430012038385D0F05804700320D5B3E80470FD
:10005300075002B2D50203C292D5EC0460F7E4CC98
:10006300C0E0C398F8603B94186008400DD0E0FBF3
:1000730002039AE4FBFAC9FC8028E830E406E4C9E9
:10008300FBE4CAFCE830E305E4C9CACBFCE8540747
:100093006010F8C3E913F9EA13FAEB13FBEC13FC52
:1000A300D8F130F52FC3E49CFCEF9BFFEE9AFEEDF5
:1000B30099FDD0E0FBEF4E4D4C701222DB0302039F
:1000C300BFEC2CFCEF33FFEE33FEED33FDED30E7F9
:1000D300EB02039AEF2BFFEE3AFEED39FDD0E0FB86
:1000E30050130BBB00030203C2ED13FDEE13FEEF2F
:0800F30013FFEC13FC02039A59
:1000FB00EC4D6011E8497017ED33EC3304600DE4FF
:10010B00FCFFFEFD22E933E8330470F80203B8125A
:10011B00038358046009E4CC24815006285009025B
:10012B0003C22840030203BFC0E0EB4A7044B9800E
:10013B0006D0E0FB0203AEEF4E701CBD8008EBFF58
:10014B00EAFEE9FD80EBE98DF0A4FEE5F00201E4A7
:10015B00E9CDF9EAFEEBFFEF89F0A4FCE5F0CE89DF
:10016B00F0A42EFFE435F0CD89F0A42DFEE435F09C
:10017B008067EF4E7005BD80D780C3EF8BF0A4ACCA
:10018B00F0EE8BF0A42CFCE435F0F8EF8AF0A42C05
:10019B00E5F038FCE433CB8DF0A42CFCE5F03BF818
:1001AB00EE8AF0A42CFCE5F038F8E433CF89F0A408
:1001BB002CFCE5F038CF3400CE89F0A42FFFE5F00E
:1001CB003EFEE433C98DF0A42EFEE5F039CD8AF066
:1001DB00A42FFFE5F03EFEE43DFD33D0E0FB5007DE
:1001EB000BBB000F0203C2EC2CFCEF33FFEE33FE14
:0601FB00ED33FD02039A42
:100201000203C2EC5D046005E8590470030203B8FF
:10021100120383580460F6EC4860F2EC7004FDFEB2
:10022100FF22C860DB2481C85009C39860025006D0
:100231000203BF9850CAF582E9294B4A7005AB8287
:100241000203AE75F0007C1A7880C3EF9BEE9AED45
:1002510099400DC3EF9BFFEE9AFEED99FDE842F048
:10026100DC23ACF0D0E0FFD0E0FED0E0FDAB82209B
:10027100E7101BEB60BAEC2CFCEF33FFEE33FEED25
:1002810033FD02039AE803F830E705C0F075F0008A
:10029100EF2FFFEE33FEED33FD40B830E7C280AA09
:1002A10074F8CC6480CCC86480C8F582046043C310
:1002B100EB9FF5F0EA9E42F0E99D42F0E89C45F0A3
:1002C10060305018E5825FFFE582F42B5582FB50C8
:1002D100210ABA001D09B90019088016E5825BFBE5
:1002E100E582F42F5582FF50090EBE00050DBD00B9
:1002F100010CC3EB9FF5F0EA9E42F0E99D42F0E864
:0D0301009C45F06007CC4820E701B3EC22DA
:10030E0075F020800E75F010800575F0087D007E6A
:10031E00007F003392D530D5031204E8EC33401041
:10032E00EF33FFEE33FEED33FDEC33FCD5F0ED2273
:0E033E00E5F0247EA2D513CC92E7CDCEFF22AF
:10034C00EDD2E7CD33EC3392D524814006E4FFFEA9
:10035C00FDFC22FCE4CFCECDCC24E0501174FF8008
:10036C00EDC3CC13CCCD13CDCE13CECF13CF0470A5
:07037C00F030D5DE0204E8B9
:1006A5003E9248DA3ECCCCCD3F2AAAAB40000000B2
:1006B5003F8000003F9837F03FB504F33FD744FC37
:1006C5003E3172173EB172173F0515913EDE5BD97B
:1006D500D2018002C201EDD2E7F8CD33EC330470CC
:1006E5000BBD800592D50203C20203B840FBD314AB
:1006F50060F2F5F07C3FEE7A00C39496C8948B4087
:10070500230AC89469C8941A401A0AC89468C894F8
:100715001F40110AC8945AC89425400805F07A006C
:10072500CDC2E7CDC0F08C398D3A8E3B8F3CEA23A4
:1007350023C0E024B5F582E43406F58312052A12B8
:10074500000AECC0E0EDC0E0EEC0E0EFC0E012054D
:100755001AA839A93AAA3BAB3C120006D0E0FBD057
:10076500E0FAD0E0F9D0E0B2E7F81202048C398D56
:100775003A8E3B8F3C9006A574031203CDA839A988
:100785003AAA3BAB3C1200FBD0E0600F24C1F582D6
:10079500E43406F58312052A12000A8C398D3A8E47
:1007A5003B8F3CD0E0C3947FFDE49400FC1203131F
:1007B5007B187A727931783F1200FBA839A93AAAD9
:1007C5003BAB3C12000A30010B7BD97A5B79DE78B2
:0507D5003E1200FB22B2
:10038300E9D2E7C933E833F892D5EDD2E7CD33ECC0
:0703930033FC5002B2D52239
:10039A00EC30E7100FBF000C0EBE00080DBD0004C4
:1003AA000BEB6014A2D5EB13FCED92E7FD2274FF70
:1003BA00FCFDFEFF22E480F8A2D574FF13FC7D80C9
:0303CA00E480EFDD
:1003CD00C0E0EFFBEEFAEDF9ECF81200FBD0E0F532
:1003DD00F0EFFBEEFAEDF9ECF812051AA3A3A3A3C7
:1003ED00E8C0E0E9C0E0EAC0E0EBC0E0C0F0120018
:1003FD00FB12052AA3A3A3A312000AD0F0D0E0FBA1
:0D040D00D0E0FAD0E0F9D0E0F8D5F0D4222C
:1008E600020966E493A3F8E493A34003F68001F2B9
:1008F60008DFF48029E493A3F85407240CC8C33313
:10090600C4540F4420C8834004F456800146F6DFE1
:10091600E4800B0102040810204080900CB7E47EAE
:10092600019360BCA3FF543F30E509541FFEE493D6
:10093600A360010ECF54C025E060A840B8E493A39D
:10094600FAE493A3F8E493A3C8C582C8CAC583CAC8
:10095600F0A3C8C582C8CAC583CADFE9DEE780BE80
:010CBE000035
:10041A0075F008758200EF2FFFEE33FECD33CDCC99
:10042A0033CCC58233C5829BED9AEC99E58298401C
:10043A000CF582EE9BFEED9AFDEC99FC0FD5F0D6F9
:10044A00E4CEFBE4CDFAE4CCF9A88222B800C1B923
:10045A000059BA002DEC8BF084CFCECDFCE5F0CB61
:10046A00F97818EF2FFFEE33FEED33FDEC33FCEB9A
:10047A0033FB10D703994004EB99FB0FD8E5E4F955
:10048A00FA227818EF2FFFEE33FEED33FDEC33FC42
:10049A00C933C910D7059BE99A4007EC9BFCE99A36
:1004AA00F90FD8E0E4C9FAE4CCFB2275F010EF2F7B
:1004BA00FFEE33FEED33FDCC33CCC833C810D7077B
:1004CA009BEC9AE899400AED9BFDEC9AFCE899F8B6
:0E04DA000FD5F0DAE4CDFBE4CCFAE4C8F92249
:0E04E800C3E49FFFE49EFEE49DFDE49CFC2225
:1004F600EB9FF5F0EA9E42F0E99D42F0E89C45F05C
:0105060022D2
:10050700E8600FECC313FCED13FDEE13FEEF13FFD2
:03051700D8F122F6
:10051A00E493FC740193FD740293FE740393FF2227
:10052A00E493F8740193F9740293FA740393FB2227
:00000001FF
